:020000040800F2
:10000000780A002089010008910100089301000886
:100010009501000897010008990100080000000000
:100020000000000000000000000000009B0100082C
:100030009D010008000000009F010008A1010008C8
:10004000A3010008A3010008A3010008A301000800
:10005000A3010008A3010008A3010008A3010008F0
:10006000A3010008A3010008A3010008A3010008E0
:10007000A3010008A3010008A3010008A3010008D0
:10008000A3010008A3010008A3010008A3010008C0
:10009000A3010008A3010008A3010008A3010008B0
:1000A000A3010008A3010008A3010008A3010008A0
:1000B000AD110008A301000801120008A301000807
:1000C000A3010008A3010008A3010008A301000880
:1000D000A30100080516000879160008F5160008A7
:1000E000A3010008A3010008A301000800F002F822
:1000F00000F03AF80AA090E8000C82448344AAF188
:100100000107DA4501D100F02FF8AFF2090EBAE885
:100110000F0013F0010F18BFFB1A43F0010318473B
:1001200098260000B8260000103A24BF78C878C18D
:10013000FAD8520724BF30C830C144BF04680C60ED
:10014000704700000023002400250026103A28BF35
:1001500078C1FBD8520728BF30C148BF0B60704739
:100160001FB51FBD10B510BD00F033F81146FFF7E5
:10017000F7FF01F067FF00F051F803B4FFF7F2FF5B
:1001800003BC01F099FC000009488047094800477A
:10019000FEE7FEE7FEE7FEE7FEE7FEE7FEE7FEE737
:1001A000FEE7FEE704480549054A064B7047000094
:1001B0005D110008ED00000878040020780A002096
:1001C0007806002078060020704770477047704717
:1001D0007047754600F02CF8AE4605006946534658
:1001E00020F00700854618B020B5FFF7DBFFBDE81B
:1001F00020404FF000064FF000074FF000084FF08E
:10020000000B21F00701AC46ACE8C009ACE8C0091E
:10021000ACE8C009ACE8C0098D46704710B504468B
:10022000AFF300802046BDE81040FFF7A6BF0000F6
:1002300000487047180400202DE9F0410026164FB1
:100240004021384600F034FB00F060FE082001F049
:100250000DFD00244021384600F02CFB052001F064
:1002600005FD00258021384600F01BFB00B101256B
:1002700045EA4600C6B24021384600F019FB052089
:1002800001F0F4FC641CE4B2082CE3D3082001F074
:10029000EDFC3046BDE8F081000C0140F0B589B0BE
:1002A000064600250895079506950595049503953E
:1002B00002950095019500F084F8502001F0BCFCF7
:1002C000002440F2E45707E0384601F0CFFC204616
:1002D000641CA4B2642803D200F062F80006F3D4D0
:1002E00000F01AFB712000F093F800F0E3FDFFF737
:1002F000A3FF08908DF8000000F014FEFFF79CFFAC
:1003000007908DF8010000F00DFEFFF795FF0690B5
:100310008DF8020000F006FEFFF78EFF05908DF8C5
:10032000030000F0FFFDFFF787FF04908DF8040045
:1003300000F0F8FDFFF780FF03908DF8050000F056
:10034000F1FDFFF779FF029000F016FE00F008FBC8
:100350000621684600F01EF99DF8081088421BD15E
:100360009DF81C0000029DF81810084300029DF83B
:1003700014100843000930609DF8140000029DF835
:100380001010084300029DF80C100843C0F313003E
:100390007060012009B0F0BD356075600020F9E79C
:1003A00010B500F0B9FA712000F032F800F082FDCB
:1003B000FFF742FF044600F0DFFD00F0D1FA2046CF
:1003C00010BD10B500F0A8FA702000F021F800F080
:1003D00071FDAC2000F01CF800F06CFD332000F043
:1003E00017F800F067FD002000F012F800F062FD41
:1003F000BDE8104000F0B4BA10B51B2000F0CEFAF2
:100400001C2000F0CBFABDE810401E2000F0C6BA58
:100410002DE9F0410446802700F07EFD0025174EAF
:100420004021304600F044FA042001F01FFC27422E
:1004300004D08021304600F03DFA03E080213046B0
:1004400000F036FA4021304600F034FA042001F082
:100450000DFC6006040E6D1CEDB2082DE0D34021AA
:10046000304600F025FA082001F000FC00F04EFDB7
:10047000BDE8F041082001F0F9BB0000000C01408C
:1004800010B5002000F018FC002000F01BFA00203E
:1004900000F050F9002000F065F9002000F062F84B
:1004A000002001F0F1FABDE81040002001F030BA60
:1004B00003480021018201624FF0804000F0E7BF55
:1004C00004000020044840F2DC510182034901622B
:1004D0000121880700F0DBBF040000203057050031
:1004E00070B5174D2878002822D06A7815484FF447
:1004F000805132B1521E6A70BDE87040012200F096
:10050000DBB9AA7832B1521EAA70BDE87040002251
:1005100000F0D2B90C4A2B7952F82330EA789C5C6F
:10052000FF2C06D06C70501C185CA870921CEA70EE
:1005300070BD002200F0C0F90020287070BD0000DE
:100540006500002000080140A02700080449087148
:100550000020C87048708870012008707047000043
:1005600065000020094A916800290ED01179814266
:100570000BD001461071064819B10122402100F04C
:100580009BB90022402100F097B970474800002035
:100590000008014070B50546FF200023312410E01B
:1005A000EA5C50400822060603D584EA4000C0B247
:1005B00001E04006000E521ED2B2002AF3D15B1CAD
:1005C000DBB28B42ECD370BD10B500F011FC094CCE
:1005D0004021204600F058F98021204600F054F9CF
:1005E0004021204600F066F92046BDE810408021F9
:1005F00000F060B9000C014001480068704700003D
:100600006C00002001484068704700006C0000202A
:100610001CB56846FFF742FE094968B1009864229C
:100620005043000D08600198C82250436FF031021A
:1006300002EB105048601CBD0020086048601CBDE3
:100640006C00002070B500F0D3FB00F0D5FB1A4C15
:100650004FF40071204600F017F90221204600F007
:1006600013F9164D2021284600F00EF910212846D6
:1006700000F00AF94021284600F006F9E114284666
:1006800000F002F94FF48041204600F0FDF84FF4ED
:1006900000463146204600F0F7F8A114284600F045
:1006A000F3F8A115204600F082F831462046BDE857
:1006B0007040012200F000B9000C01400008014028
:1006C00070B5FFF7BFFF184C00224FF400712046B1
:1006D00000F0F2F800220221204600F0EDF8134D60
:1006E00000222021284600F0E7F8002210212846A9
:1006F00000F0E2F800224021284600F0DDF8002258
:10070000E114284600F0D8F800224FF4804120463A
:1007100000F0D2F80022A114284600F0CDF80449D8
:100720000120886070BD0000000C014000080140FD
:1007300048000020094A916800290ED09178814232
:100740000BD001469070064819B10122202100F01B
:10075000B3B80022202100F0AFB870474800002055
:1007600000080140094A916800290ED0D1788142E1
:100770000BD00146D070064819B10122102100F0BB
:100780009BB80022102100F097B870474800002065
:100790000008014008B5ADF8001018218DF80310CD
:1007A00003218DF80210694600F01BF808BD08B55A
:1007B000ADF8001004218DF8031003218DF802100C
:1007C000694600F00EF808BD08B5ADF800104821E4
:1007D0008DF8031003218DF80210694600F001F82E
:1007E00008BD2DE9F0410022CC7804F00F03E406A7
:1007F00001D58C7823430C784FF00F0714F0FF0FCE
:100800004FF0010C1CD005680CFA02F40E8826404B
:10081000A64211D1960007FA06F825EA080503FA60
:1008200006F848EA0505CE78282E02D0482E02D0D8
:1008300002E0446100E00461521C082AE4D3056030
:100840000A88FF2A1ED94568002202F108060CFA20
:1008500006F40E882640A64210D1960007FA06F844
:1008600025EA080503FA06F848EA0505CE78282E99
:1008700000D14461CE78482E00D10461521C082A70
:10088000E3D34560BDE8F08108B5ADF80010102154
:100890008DF8031003218DF802106946FFF7A1FFC0
:1008A00008BD0246002092680A4200D0012070472D
:1008B0004161704701617047002A01D001617047B2
:1008C0004161704710B512498A68002A1ED04A78E3
:1008D00082421BD0024648700E4C4FF4007152B158
:1008E00001222046FFF7E8FF20460022BDE8104025
:1008F0000221FFF7E1BF00222046FFF7DDFF20467F
:100900000022BDE810400221FFF7D6BF10BD000055
:1009100048000020000C014010B500F0FDFA0F4C1B
:1009200080212046FFF7C6FF082001F09FF94021F3
:100930002046FFF7BFFF082001F098F980212046EC
:10094000FFF7B6FF082001F091F940212046FFF79C
:10095000AFFFBDE81040082001F088B9000C01404D
:1009600010B500F0D9FA0C4C80212046FFF7A0FF0B
:10097000082001F07BF940212046FFF79BFF08206B
:1009800001F074F980212046FFF794FFBDE8104084
:10099000082001F06BB90000000C014070B504465E
:1009A000FFF7BAFF7020FFF733FD00F083FA20460F
:1009B000FFF72EFD00F07EFA0020FFF729FD00F082
:1009C00079FA0020FFF724FD00F074FAFFF7C8FF62
:1009D000052001F031F9FFF79FFF7120FFF718FDA7
:1009E00000F068FAFFF728FC00F09CFAFFF724FCFF
:1009F000054600F097FAFFF71FFC064600F0BCFA28
:100A0000FFF7AEFF0A2001F017F9FFF785FF70200E
:100A1000FFF7FEFC00F04EFA44F0B000FFF7F8FCE0
:100A200000F048FA2846FFF7F3FC00F043FA30469E
:100A3000FFF7EEFC00F03EFABDE87040FFF790BF14
:100A400010B5074C80212046FFF732FF4FF4FA70B3
:100A500001F0F2F82046BDE810408021FFF72ABFE0
:100A60000008014010B500F0C3F90121480400F06E
:100A7000A3F90F4C04212046FFF78CFE08212046E5
:100A8000FFF795FE00F0BCF980212046FFF7FCFE41
:100A9000084C4FF41651204600F028FF204600F085
:100AA00077FE0122BDE810401146262000F033B940
:100AB0000008014000440040012240F22551014855
:100AC00000F092BE004400400348C178807801EBFA
:100AD000002080B270470000740000200348417974
:100AE000007901EB002080B2704700007400002004
:100AF00003484178007801EB002080B27047000085
:100B00007400002010B5054800F020FF20B1BDE8BA
:100B10001040024800F02ABF002010BD380300201A
:100B200010B50DE00A4800F021FF2C2808D1084834
:100B300000F00CFF20B1064800F018FFE42805D0B3
:100B4000034800F003FF0028ECD110BD012010BDC8
:100B5000380300202DE9F041FFF7E2FF002830D0F4
:100B6000FFF7D0FF184CE071FFF7CCFF2072FFF7C2
:100B7000C9FF6072FFF7C6FFA072FFF7C3FFE07204
:100B8000FFF7C0FF2073FFF7BDFF6073E279277A9C
:100B9000637AD119A57A1944E67A294401EB060C47
:100BA000217B8C440CF5887C0CF0FF0C844508D12B
:100BB000002906D022706770A370E57026716171FC
:100BC000A071BDE8F08100007400002010B500F0B5
:100BD00013F9BDE8104020210148FFF7F5BD0000E2
:100BE000000C014010B520210348FFF75AFE08B160
:100BF000002010BD012010BD000C0140FFF7E6BF32
:100C000010B5FFF7EFFF0649012804D00A788242A9
:100C100004D0087010BD0870012010BD002010BD68
:100C20003000002070B5FFF7EBFF0446204B214D4C
:100C30004FF480514CB10E2C1BD00DDC012C25D073
:100C40000C2C10D00D2C2BD110E000221846FFF7F1
:100C500033FE0020286070BD0F2C0DD0102C0ED05C
:100C6000112C1DD10EE001F0FBF819E001F02CF978
:100C700016E001F00FF913E001F0D8F810E001F0F0
:100C80003DF90DE0002001F07BFA09E02868401CE6
:100C9000286001221846FFF70FFE002001F070FACD
:100CA0000C3C062C01D2012070BD002070BD00005C
:100CB000000801403400002004498A68002A03D05B
:100CC0000A78824200D00870704700004800002077
:100CD00010B501F067F906281CD2DFE800F0130315
:100CE000070B0F17BDE8104001F02CBBBDE810400A
:100CF00001F080BBBDE8104001F050BBBDE81040E2
:100D000001F0EEBABDE8104001F0A0BBBDE8104014
:100D100001F0DABA10BDF8B504460D4616464FF498
:100D2000A06000F03FF88DF800408DF801508DF87C
:100D3000026001208DF80300684600F001F8F8BD5C
:100D400070B50F23C27801260178002A1ED0144AFC
:100D5000126802F4E062C2F5E062120AC2F1040411
:100D6000D3404578A54082781A402A43120101F108
:100D7000E02181F80024007800F01F018E40400936
:100D8000800000F1E020C0F8006170BD01F01F009C
:100D900086404809800000F1E020C0F8806170BD05
:100DA0000CED00E00249084302490860704700006A
:100DB0000000FA050CED00E0054A002903D0D169D6
:100DC0000143D1617047D1698143D161704700000F
:100DD00000100240054A002903D091690143916146
:100DE0007047916981439161704700000010024093
:100DF00001210420FFF7EEBF01210820FFF7EABF21
:100E000001211020FFF7E6BF10B5264A516801F016
:100E10000C01254B002927D0042927D0082927D0E9
:100E20000360516801F0F0010909204B5C5C016826
:100E3000E1404160546804F4E064240A1C5D21FA36
:100E400004F48460546804F46054E40A1B5DD940DF
:100E5000C160526802F44042920B144B1B1F9A5C13
:100E6000B1FBF2F1016110BD0360DAE70360D8E77E
:100E7000516801F47011536803F48033022404EBC9
:100E8000914133B153689B0307D5094B5943016026
:100E9000C7E7074B59430160C3E7034B5943016060
:100EA000BFE700000010024000127A008C00002012
:100EB00000093D0070B50024134D40212846FFF77E
:100EC000F7FC00F023F8082000F0D0FE402128466F
:100ED000FFF7F0FC082000F0C9FE01E0641CA4B29A
:100EE00080212846FFF7DDFC08B1642CF6D3642C82
:100EF00008D040212846FFF7DBFC082000F0B6FEB2
:100F0000012070BD002070BD000C0140802101480F
:100F1000FFF74DBC000C014080210148FFF7B4BC35
:100F2000000C014010B5134C40212046FFF7C0FCD7
:100F3000082000F09BFEFFF7EFFF80212046FFF71F
:100F4000B7FC082000F092FE40212046FFF7B2FCDB
:100F5000082000F08BFE40212046FFF7A9FC082066
:100F600000F084FEFFF7D2FFBDE81040082000F03B
:100F70007DBE0000000C014010B5144C40212046FD
:100F8000FFF796FC082000F071FEFFF7C5FF8021F7
:100F90002046FFF78FFC082000F068FE4021204625
:100FA000FFF788FC082000F061FE40212046FFF793
:100FB0007FFC082000F05AFE80212046FFF778FCD5
:100FC000BDE81040082000F051BE0000000C0140B8
:100FD00010B5FFF7F9FAFFF79FFC7020FFF718FA3A
:100FE000FFF768FFA820FFF713FAFFF763FF002061
:100FF000FFF70EFAFFF75EFF0020FFF709FAFFF791
:1010000059FFFFF7ADFC0A2000F016FEFFF784FC45
:101010007020FFF7FDF9FFF74DFFBE20FFF7F8F94D
:10102000FFF748FF0820FFF7F3F9FFF743FF002021
:10103000FFF7EEF9FFF73EFFFFF792FC0A2000F002
:10104000FBFDFFF7ADF9C0F3C100032806D0FFF7A1
:10105000D3F9BDE810400A2000F0EEBD10BD00003D
:1010600010B5FFF7FFFC08490020088048807F2268
:101070008A80A1F18C038B600C39088048808A80BB
:10108000A1F58070886010BD44030020AFF300809C
:101090000CB50022019200922748016841F480318A
:1010A00001604FF4A063016801F4003100910199DF
:1010B000491C0191009911B901999942F3D1016834
:1010C000890302D50121009100E0009200990129D5
:1010D00030D11A490A6842F010020A600A6822F008
:1010E00003020A600A6842F002020A604168416035
:1010F00041684160416841F480614160416821F488
:101100007C114160416841F4E8114160016841F09F
:101110008071016001688901FCD5416821F00301FB
:101120004160416841F0020141604168C1F38101C1
:101130000229FAD10CBD000000100240002002403C
:101140004FF0E021042804D0086920F00400086171
:101150007047086940F004000861704710B50F48F7
:10116000016841F00101016041680D4A1140416090
:1011700001680C4A11400160016821F4802101607E
:10118000416821F4FE0141604FF41F018160FFF7C7
:101190007DFF05494FF00060086010BD001002405F
:1011A0000000FFF8FFFFF6FE08ED00E010B501219A
:1011B0008C07204600F077F900281BD0012120463B
:1011C00000F062F90C4C0D484FF48051E269C82AD6
:1011D00005D2521CE2610122FFF76EFB04E0521CB3
:1011E000E2610022FFF768FBE069B0F5C87F01D13A
:1011F0000020E06110BD0000040000200008014054
:101200002DE9F0479D4C0121204600F04CF90028C3
:101210007ED00121204600F037F9994E4FF00005AD
:101220004FF47A743088401E0004000C30800CD1DA
:101230003480FFF7EDF9FFF78DFCB06A401CB06217
:101240000A2802D1B56200F038FC70884FF06407BC
:10125000401E0004000C708002D17780FFF7E2FC92
:10126000B088401E0004000CB08007D1F08900B1A6
:10127000F5814EF66020B080FFF72AFDF088401E11
:101280000004000CF08002D1F780FFF729F93089C3
:10129000401E0004000C308153D1F089C8BB34815A
:1012A00000F080FEE0B9FFF7ADF90A2803DBFFF795
:1012B000A3F9412803DD00F0B9FDFFF703F9FFF7BB
:1012C00017FCB0F5167F07D8FFF7FEFB642803D89C
:1012D000FFF704FCA04203D900F0C2FDFFF7F2F8CB
:1012E00000F060FE04280FD100F062FE01280BD14F
:1012F000FFF788F90A2807DDFFF77EF9322803DABD
:1013000000F0FCFDFFF7D4F800F04CFE012801E0EE
:10131000B2E016E015D100F04BFE012811D1FFF725
:10132000E7FBB0F5C87F0CD2FFF7CEFB3C2808D214
:10133000FFF7D4FBB0F5487F03D200F0DFFDFFF7E5
:10134000B7F8318A4FF0804729B1491E3182012117
:10135000384600F09CF8308A80B9316A71B1491E74
:1013600031620021384600F092F8308A316A084331
:1013700004D1706A401C7062FFF7A4F8706A0228FA
:1013800002D17562FFF794F87089DFF8F890401E7B
:101390000004000C70812BD1748100F003FE04283E
:1013A00026D1706904274FF4007A4FF0870801288E
:1013B00005D1B269052A05D05AB1521EB2617069D1
:1013C00080B115E0B761002251464846FFF774FA34
:1013D000F5E7012202214846FFF76EFA7561C6F86B
:1013E0001880ECE7B069052814D0D0B1401EB06178
:1013F000B089401E0004000CB0813DD1B4814FF48F
:1014000080714846FFF74DFAA8B100F0CBFD0128E6
:1014100023D028E0B761002202214846FFF74CFAAA
:10142000E6E7012251464846FFF746FA012070617F
:10143000C6F81880DCE700F0B5FD012804D1FFF7FD
:1014400091F80120FFF776F900F0ACFD032813D1E5
:10145000BDE8F047012000F05BBA0020FFF76AF911
:101460000020FFF77FF800F09DFD032804D1BDE8C0
:10147000F047002000F04CBABDE8F08700080040BB
:1014800004000020000C0140C9430182704700297C
:1014900004D0018841F0010101807047018821F0EA
:1014A00001010180704702460020138A0B40928997
:1014B0000A40002B02D0002A00D001207047002AE9
:1014C00003D082890A438281704782898A4382815C
:1014D0007047000030B502881B4C1C4DA0420DD057
:1014E000A8420BD0B0F1804F08D0194B984205D0DC
:1014F000184B984202D0184B984203D122F0700347
:101500004A881A43154B984206D0154B984203D08F
:1015100022F44073CA881A4302808A8882850A8826
:101520000285A0420AD0A84208D00E4A904205D0B7
:101530000D4A904202D00D4A904201D1097A0186AB
:101540000121818230BD0000002C014000340140A7
:101550000004004000080040000C00400010004063
:101560000014004000400140004401400048014098
:101570003EB501210846FFF71FFC40F21F30ADF8D1
:1015800004000020ADF80000ADF80600ADF8020040
:101590004FF0804469462046FFF79CFF0322114626
:1015A0001C20FFF7B8FB012211462046FFF787FFFA
:1015B0003EBD00003EB501210420FFF7FDFB0920E0
:1015C000ADF8040041F61F40ADF800000020ADF872
:1015D0000600ADF802000A4C69462046FFF77AFF84
:1015E000012202211E20FFF796FB01221146204610
:1015F000FFF765FF01212046FFF749FF3EBD0000D0
:101600000008004070B51A4C40F227752946204664
:1016100000F0CAF8012813D040F22555294620468B
:1016200000F0C2F8012822D12946204600F09CF89B
:10163000204600F053F9C0B2BDE8704000F0B4BFDE
:101640000C4800F07DF930B10A4800F085F90146F8
:10165000204600F047F9074800F072F9002806D14B
:1016600029462046BDE87040002200F0BDB870BD9C
:10167000003801402C01002070B51C4C40F2277549
:101680002946204600F090F8012814D040F2255554
:101690002946204600F088F8012826D12946204610
:1016A00000F062F8204600F019F9C1B2BDE87040C0
:1016B0000F4800F06EB90E480C3000F047F938B111
:1016C0000B480C3000F052F90146204600F00AF9B0
:1016D00007480C3000F03AF9002806D12946204688
:1016E000BDE87040002200F07FB870BD00440040AB
:1016F0003803002070B540F22551154800F054F829
:1017000000280ED0134800F0E9F8C1B2124A108840
:10171000030406D444044FF0000307D50A2901D07E
:10172000138070BD40F40040108070BD0D290AD0B8
:101730000A4DC0F30D042955401C80B21080C72803
:10174000F3D9138070BD40F48040108070BD00005C
:101750000048004000380140820000205003002073
:101760008A05C9430180704740F66A120A0A0121BE
:101770009140C94301807047002904D0818941F418
:10178000005181817047818921F400518181704726
:1017900010B5044640212046FFF7E2FF2046BDE891
:1017A00010400121FFF7E8BF70B5002440F66A122F
:1017B000C1F3421301F01F05012606FA05F2012BC1
:1017C0000CD0022B0DD0838A1340090A8E4000886A
:1017D00030400BB100B10124204670BD8389134015
:1017E000F3E7038A1340F0E710B540F66A13C1F33C
:1017F000421301F01F040121A140012B07D0022B4D
:1018000007D014303AB102680A43026010BD0C30B0
:10181000F8E71030F6E702688A43026010BD000066
:1018200030B585B004460D46208A4CF6FF7108405D
:10183000E98801432182A0894EF6F3110840A98866
:101840002A8911436A8902431143A181A08A4FF674
:10185000FF410840A9890143A1826846FFF7D4FAF5
:101860001D48844201D1039800E00298A18909042F
:1018700008D500EBC00101EB001029684900B0FB5E
:10188000F1F007E000EBC00101EB001029688900CE
:10189000B0FBF1F06422B0FBF2F109010B096FF02B
:1018A00018056B4300EB8300A3891D044FF032033E
:1018B00007D503EBC000B0FBF2F000F007000843CF
:1018C00006E003EB0010B0FBF2F000F00F0008435D
:1018D000208105B030BD0000003801408088C0F391
:1018E00008007047C1F30801818070471FB500915F
:1018F0000021ADF80410ADF80610ADF80810ADF8F1
:101900000C100C21ADF80A106946FFF789FF1FBDC6
:1019100009498A68002A0ED08A7982420BD0024691
:10192000887106484FF4804112B10122FEF7C4BF0E
:101930000022FEF7C1BF704748000020000C0140A4
:10194000018842888088891A084070470188428847
:101950008088891A084070474188828811408268CF
:10196000515C4288521C42800846704741888288F8
:1019700011408268515C4288521C42800846704780
:10198000028883881A40836899540188491C018021
:101990007047028883881A40836899540188491CDB
:1019A0000180704770B5084D4FF400542146284619
:1019B000FEF77EFF4FF4FA7000F03EF9214628460C
:1019C000BDE87040FEF776BF0010014010B500F092
:1019D00013F808490020088048807F228A8001F19E
:1019E0008C038B600C39088048808A8001F11800D4
:1019F000886010BD2C01002010B5FFF7F9F9012116
:101A00008803FFF7E7F9104C4FF400712046FEF70A
:101A1000C1FE21152046FEF7CAFEFFF7F1F9611459
:101A20000A48FEF731FF0A4C4FF4E1312046FFF738
:101A30005DFF2046FFF7ACFE00220121BDE810400B
:101A40002520FFF768B900000008014000100140A0
:101A500000380140012240F225510148FFF7C4BE81
:101A60000038014010B501460548FFF789FFBDE881
:101A70001040012240F227710248FFF7B5BE000076
:101A80002C0100200038014009498A68002A0ED044
:101A90004A7982420BD00246487106484FF40061F1
:101AA00012B10122FEF708BF0022FEF705BF704702
:101AB0004800002000080140704710B500F072FA9D
:101AC0000146022000F006FB00F04BFA0146092017
:101AD00000F022FB00F040FA0146162000F01CFB4B
:101AE00000F02AFA0146652000F016FB00F020FA0B
:101AF0000146662000F010FB00F01CFA0146BDE82C
:101B00001040672000F008BB01780A0241781143B9
:101B10000A02817811430902C07808437047FEF732
:101B2000AFBC00002DE9F0470746DFF8889009EBCD
:101B30000705E9780122204809291CD2DFE801F0D5
:101B400005090D111A1D1F1B3500BDE8F04700F0F7
:101B500035BABDE8F04700F051BBBDE8F04700F0F2
:101B60001BBAA979C170BDE8F047002203210846DD
:101B700000F0BEBD4270BDE8F0878270FBE7687977
:101B8000297940EA012800240CE038194844017AF8
:101B90000902407A46182819801D00F00FF8A01994
:101BA000001D84B24445F0D3E5E7BDE8F047FFF7F8
:101BB00084BF0000B0000020580000202DE9F04153
:101BC000044627786578A0780002E178084486B258
:101BD000384600F0CBF9084901EB40004078A842B4
:101BE00002D00020BDE8F0813246211D3846BDE814
:101BF000F04100F089B800006027000810B56FF0D0
:101C00000400FFF79DFA094809490068B0FBF1F0AC
:101C10000849C0B2087000EB4002C2EBC0104FF69A
:101C2000FF7202EAC000488010BD00009C00002046
:101C300000127A00840000200B49498848434FF085
:101C4000E021486100238B61086940F001000861D0
:101C50000869C20701D0C003FAD5086920F0010065
:101C600008618B6170470000840000200B490978EF
:101C700048434FF0E021486100238B61086940F040
:101C8000010008610869C20701D0C003FAD50869DC
:101C900020F0010008618B61704700008400002083
:101CA00010B500F067FA0146042000F0EBF90128B6
:101CB00001D0002010BD012010BD10B500F05EFA6B
:101CC0000146062000F028FA012801D0002010BDAE
:101CD000012010BD10B500F04DFA0146052000F0BE
:101CE000D1F9012801D0002010BD012010BD10B590
:101CF00000F040FA01460E2000F0C4F9012801D09E
:101D0000002010BD012010BD034608461146112BCE
:101D10001CD2DFE803F01B090B0D0F11131B1B1B5B
:101D20001B1B1B1B1517190000F056B800F00FB84D
:101D300000F05FB8FFF7B4BFFFF7CCBFFFF7BDBF40
:101D4000FFF7D5BF00F03BB800F02CB8704710B5D6
:101D500000F012FA0446062C15D2DFE804F0030660
:101D6000090C0F1200F0CAF80DE000F079F80AE053
:101D700000F0AAF807E000F08DF804E000F056F853
:101D800001E000F043F82146022000F0A3F9012809
:101D900001D0002010BD002000F080FBFEF788FB82
:101DA000012010BD10B500F0E5F90146102000F04B
:101DB00069F9012801D0002010BD012010BD10B527
:101DC00000F0D8F901460F2000F05CF9012801D09D
:101DD000002010BD012010BD10B500F0CBF9014668
:101DE000012000F04FF9012801D0002010BD012092
:101DF00010BD10B500F0BEF90146032000F042F915
:101E0000012801D0002010BD012010BD10B5FEF743
:101E100037FB05490020C873052000F039FBBDE8F9
:101E200010400120FEF792BB3800002010B5FEF7ED
:101E300027FB00F0E6F809490020C87208734873D0
:101E4000042000F025FB00F0ADF80146022000F070
:101E500041F9BDE810400120FEF778BB38000020B2
:101E600010B5FEF70DFB00F0E1F80949002088707D
:101E7000C8700871012000F00BFB00F093F80146D8
:101E8000022000F027F9BDE810400120FEF75EBBFC
:101E90003800002010B5FEF7F3FA00F008FB0949FE
:101EA0000020087248728872032000F0F1FA00F0F6
:101EB00079F80146022000F00DF9BDE8104001203C
:101EC000FEF744BB3800002010B5FEF7D9FA00F049
:101ED0003CFC0949002048718871C871022000F05B
:101EE000D7FA00F05FF80146022000F0F3F8BDE8F1
:101EF00010400120FEF72ABB3800002010B5FEF785
:101F0000BFFA0A4900208873012000F0C7FA0020B8
:101F100000F0BEFA00F046F80146022000F0DAF8C0
:101F2000BDE810400120FEF711BB00003800002082
:101F3000FEF7CABDFEF7D2BDFEF7DABD10B500232D
:101F4000002205E010F8014B2344DBB2521C92B290
:101F50008A42F7D3184610BD10B5FEF74DFBC0B24C
:101F600010BD10B5FEF74EFBC0B210BD10B5044653
:101F700000F010F801460020054A05E012F8103084
:101F8000A34203D0401CC0B28842F7D310BD00006A
:101F9000602700081320704700220321022000F070
:101FA000A7BB0000014800787047000038000020FF
:101FB00001484078704700003800002010B500202C
:101FC0000A4B1978002909D0012100F059FAC2B250
:101FD0000321BDE81040002000F08ABB002100F082
:101FE0004FFAC2B201201870F2E70000580000203A
:101FF00010B50020FEF79EFBBDE810400020FEF764
:1020000061BC10B50120FEF795FBBDE81040012032
:10201000FEF758BC10B50020FEF78CFB0020FEF741
:10202000A1FBBDE810400020FEF79CBA10B50120CE
:10203000FEF780FB0120FEF795FBBDE81040012074
:10204000FEF790BA00F036FAFEF7FAFCFFF7AAFCAA
:1020500000F0CAFA4FF47A70FFF7EEFDFEF72CFDA0
:10206000FFF7F8FC4FF4165000F04CFA0449012039
:10207000087000F0CFFA6420FFF7DEFDF9E70000FA
:102080000000002010B502460C46002010490978D7
:10209000012916D0114600F0F3F9012100F0F0F902
:1020A000002100F0EDF9012100F0EAF95CB1012115
:1020B00000F0E6F902460321072000F019FB012099
:1020C00010BD012010BD002100F0DAF90246F2E750
:1020D0006400002010B502460C4600200D49097826
:1020E000012915D0114600F0CBF9042100F0C8F900
:1020F000002100F0C5F9012100F0C2F9214600F0ED
:10210000BFF902460321072000F0F2FA012010BDBA
:10211000012010BD6400002010B502460C460020CE
:1021200013490978012920D0114600F0A9F90221AC
:1021300000F0A6F9002100F0A3F9042100F0A0F9B5
:10214000210E00F09DF9C4F3074100F099F9C4F3A2
:10215000072100F095F9E1B200F092F9024603215F
:10216000072000F0C5FA012010BD012010BD0000BD
:10217000640000200078704700787047FFF7C4BC07
:1021800010B50146054A0020107000F079F9C2B27E
:102190000321BDE81040052000F0AABA5A00002033
:1021A00030B504462046002C08D00B0006D08842EB
:1021B00002D98B18834212D2002305E0002030BDE3
:1021C000CD5CC5545B1C9BB29342F9D309E08B18DC
:1021D000851813F8013C05F8013C521E92B2002A02
:1021E000F5D1204630BD0021002801D17047491C9F
:1021F00010F8012B002AFAD10846704710B50024C8
:1022000022A0FFF7F0FF82B220A1204600F02AF9B9
:10221000C4B220A0FFF7E7FF82B21EA1204600F063
:1022200021F9C4B220A0FFF7DEFF82B21EA1204632
:1022300000F018F9C4B21EA0FFF7D5FF82B21CA1AE
:10224000204600F00FF9C4B21BA0FFF7CCFF82B20A
:1022500019A1204600F006F9C4B219A0FFF7C3FF88
:1022600082B217A1204600F0FDF8C4B215A0FFF716
:10227000BAFF82B213A1204600F0F4F8C2B20321E3
:10228000BDE81040012000F033BA00007B2270222C
:102290003A2200006D7A6C7078647A3762696670F1
:1022A0003864393100000000222C2276223A2200C4
:1022B000312E302E30000000222C226D223A0000F8
:1022C000310000007D0000000449C87B002803D0D5
:1022D000401EC873FFF723BC704700003800002081
:1022E00010B5144BD87A002802D0401ED87210BD09
:1022F000187B28B1401E1873BDE81040FFF778BE68
:102300000D4A587B115C02445278FF2906D0FF2AFF
:1023100004D0D9721A73801C587310BDFFF768FE81
:10232000064901200860064987200860BDE8104082
:10233000FFF7E4BD380000205D27000818000020EA
:102340001C00002010B5134B9878002805D0401EC3
:102350009870BDE81040FFF769BED87828B1401EDC
:10236000D870BDE81040FFF755BE0B4A1879115CD4
:1023700002445278FF2906D0FF2A04D09970DA70FF
:10238000801C187110BDFFF745FEBDE81040FFF737
:10239000B5BD0000380000205427000810B5134BCD
:1023A000187A002805D0401E1872BDE8104000F0D1
:1023B0007EB8587A28B1401E5872BDE8104000F02F
:1023C00073B80B4A987A115C02445278FF2906D000
:1023D000FF2A04D019725A72801C987210BD00F046
:1023E00063F8BDE81040FFF789BD00003800002009
:1023F0005A27000810B5134B5879002805D0401E05
:102400005871BDE8104000F0A0B9987928B1401E7D
:102410009871BDE8104000F095B90B4AD879115C6D
:1024200002445278FF2906D0FF2A04D059719A71CC
:10243000801CD87110BD00F085F9BDE81040FFF791
:102440005DBD000038000020572700080449887B44
:10245000002803D0401E887300F07AB9704700004E
:102460003800002070B50446154604482044801DFD
:102470002A46FFF795FE601980B270BDE600002085
:10248000024A02449171401C80B27047E60000206D
:102490000149087070470000380000200149487069
:1024A00070470000380000200020FFF731BA0120FB
:1024B000FFF72EBA10B5FFF7A1FBFFF77BF8FFF788
:1024C00057F8FEF7FDF8FEF783FDFEF7C9FDFEF7AE
:1024D00095FBBDE81040FFF779BA0000074AD2E942
:1024E0000131994208D00648814201D317389060E3
:1024F000916811F8010B91607047000058000020AE
:10250000E600002070B586B0054601212348FEF79D
:1025100053FC4FF48060ADF8140003248DF816408E
:1025200018218DF817101E4E05A93046FEF759F9EF
:10253000F114ADF8141004218DF8171005A93046D8
:10254000FEF74FF927208DF800008DF801408DF837
:10255000024001208DF803006846FEF7F1FB01956B
:102560000020ADF80800ADF80A00ADF80C00ADF899
:1025700010000C20ADF80E000A4C01A92046FFF710
:102580004FF9012240F225512046FFF72DF9012194
:102590002046FFF7F1F806B070BD00000800040007
:1025A000000C01400048004010B50B490B4B0A6875
:1025B0001968541A012C0ED0914202D98A1A172A8E
:1025C00009D2074A914202D3A2F117011960196892
:1025D00001F8010B196010BD600000205C000020B4
:1025E000E6000020FFF73EBA0649054808600649A4
:1025F00008600649002008700549FF2008707047F0
:10260000CF0000205C00002060000020640000205B
:102610005B0000202DE9F04100242B4E2B4F06E0FB
:10262000FFF75CFF02463888411C398032543888F5
:102630001F2803D200F07AF80028F1D13888072843
:1026400040D32FE0305D552802D0641CA4B229E0AD
:1026500030194278AA2A02D0641CA4B222E08278FF
:1026600012B1A41CA4B21DE0027912024379D21D5A
:102670001A4495B2262D02D9E41CA4B212E0A94254
:1026800014DB691E89B2FFF759FC2544A91911F81A
:10269000011C884202D0E41CA4B203E02046FFF7EC
:1026A00041FAACB23888011B0729CBDA3888001B05
:1026B00082B23A80002A05D03119BDE8F0410248C3
:1026C000FFF76EBDBDE8F081B0000020540000208F
:1026D00070B505460C46002D09D0002C07D003E04C
:1026E0002878FFF77FFF6D1C641EA4B2F8D270BD7E
:1026F00070B50D4C55232370AA236370A170E07050
:10270000100A20716271D21D95B2681E81B22046F6
:10271000FFF714FC611901F8010C29462046BDE8B9
:102720007040FFF7D5BF0000E60000200448D0E964
:102730000110814201D00120704700207047000045
:10274000580000200020FFF79FB90120FFF79CB937
:10275000FDF796BE0500FF0A00FF0500FF0F00FF12
:102760000101020403010401050106020702080534
:1027700009020C010D010E010F01100115041602D2
:1027800065026602670201010101FF01020102FF09
:1027900001030103FF01040104FF1405FF3205FFDB
:1027A000862700088B270008902700089527000837
:1027B0009A2700089D270008D8270008000000205D
:1027C000B00000002801000888280008B0000020A0
:1027D000C80900004401000800000000E80364008C
:1027E00060EA6400E803E803E80301000000000079
:1027F0000100000087000000000000000000000051
:1028000000000000000000000000000000000000C8
:1028100000010000000000000000000000000000B7
:1028200000000000000000000000000000000000A8
:102830000000000000000000000000000000000098
:102840000000000000000000000000000000000088
:102850000000000000000000000000000000000078
:102860000204060800000000010203040102030440
:102870000607080900A24A0400000000000000004A
:08288000010203040607080928
:040000050800018965
:00000001FF
